H30630291727CUOTA     00026122019
D000000000000720314388000036473568FG100246              09042020CUOTA         00000000000MATRICULACUOTAS0000210000P                                    R15   0000000000000002312201900000VTO330630291727
D000000000000720314388000036657418FG100649              09042020CUOTA         00000000000MATRICULACUOTAS0000210000P                                    R15   0000000000000002312201900000VTO330630291727
D000000000000720314388000033160454FG100829              09042020CUOTA         00000000000MATRICULACUOTAS0000180000P                                    R15   0000000000000002312201900000VTO330630291727
D000000000001910242755024200679714FG100610              09042020CUOTA         00000000000MATRICULACUOTAS0000210000P                                    R03   0000000000000002312201900000VTO330630291727
D000000000001910242755124200285435FG100623              09042020CUOTA         00000000000MATRICULACUOTAS0000210000P                                    R10   0000000000000002312201900000VTO330630291727
D000000000001910242755124200752599FG100681              09042020CUOTA         00000000000MATRICULACUOTAS0000210000P                                    R15   0000000000000002312201900000VTO330630291727
D000000000001910242755024200118482FG100695              09042020CUOTA         00000000000MATRICULACUOTAS0000210000P                                    R10   0000000000000002312201900000VTO330630291727
D000000000001910242755124200861235FG100814              09042020CUOTA         00000000000MATRICULACUOTAS0000210000P                                    R10   0000000000000002312201900000VTO330630291727
D000000000002850548040094858286118FG100625              09042020CUOTA         00000000000MATRICULACUOTAS0000180000P                                    R10   0000000000000002312201900000VTO330630291727
D000000000002850548040094939460888FG100962              09042020CUOTA         00000000000MATRICULACUOTAS0000180000P                                    R10   0000000000000002312201900000VTO330630291727
D000000000000070256230004016919694FG100440              09042020CUOTA         00000000000MATRICULACUOTAS0000309000P                                    R10   0000000000000002312201900000VTO330630291727
D000000000000110393730039308636597FG100726              09042020CUOTA         00000000000MATRICULACUOTAS0000180000P                                    R10   0000000000000002312201900000VTO330630291727
D000000000000110506330050602088347FG100523              09042020CUOTA         00000000000MATRICULACUOTAS0000210000P                                    R04   0000000000000002312201900000VTO330630291727
D000000000000110546930054600019701FG100018              09042020CUOTA         00000000000MATRICULACUOTAS0000210000P                                    R10   0000000000000002312201900000VTO330630291727
D000000000000110546930054613654733FG100619              09042020CUOTA         00000000000MATRICULACUOTAS0000210000P                                    R10   0000000000000002312201900000VTO330630291727
D000000000000110546930054615074779FG100766              09042020CUOTA         00000000000MATRICULACUOTAS0000210000P                                    R10   0000000000000002312201900000VTO330630291727
D000000000000110546930054613514015FG100783              09042020CUOTA         00000000000MATRICULACUOTAS0000309000P                                    R10   0000000000000002312201900000VTO330630291727
D000000000000110546930054614685783FG100934              09042020CUOTA         00000000000MATRICULACUOTAS0000180000P                                    R10   0000000000000002312201900000VTO330630291727
D000000000000110546930054615478151FG101054              09042020CUOTA         00000000000MATRICULACUOTAS0000210000P                                    R10   0000000000000002312201900000VTO330630291727
D000000000000720314388000036938472FG100556              09042020CUOTA         00000000000MATRICULACUOTAS0000309000P                                    R10   0000000000000002312201900000VTO330630291727
D000000000000720314388000032115172FG101113              09042020CUOTA         00000000000MATRICULACUOTAS0000353300P                                    R10   0000000000000002312201900000VTO330630291727
D000000000000140348803628151154424FG100903              09042020CUOTA         00000000000MATRICULACUOTAS0000210000P                                    R10   0000000000000002312201900000VTO330630291727
D000000000000440040040000147870540FG100068              09042020CUOTA         00000000000MATRICULACUOTAS0000420000P                                    R10   0000000000000002312201900000VTO330630291727
D000000000000440040040000133600830FG100487              09042020CUOTA         00000000000MATRICULACUOTAS0000399000P                                    R10   0000000000000002312201900000VTO330630291727
D000000000000440040040000134696010FG100782              09042020CUOTA         00000000000MATRICULACUOTAS0000309000P                                    R10   0000000000000002312201900000VTO330630291727
D000000000000340250608122001757007FG100108              09042020CUOTA         00000000000MATRICULACUOTAS0000210000P                                    R15   0000000000000002312201900000VTO330630291727
D000000000000340250608122003573001FG100535              09042020CUOTA         00000000000MATRICULACUOTAS0000210000P                                    R15   0000000000000002312201900000VTO330630291727
D000000000000340250608122013289019FG100704              09042020CUOTA         00000000000MATRICULACUOTAS0000330000P                                    R15   0000000000000002312201900000VTO330630291727
D000000000000340250608122019941007FG100678              09042020CUOTA         00000000000MATRICULACUOTAS0000210000P                                    R15   0000000000000002312201900000VTO330630291727
D000000000000340250608122020618006FG100139              09042020CUOTA         00000000000MATRICULACUOTAS0000506000P                                    R15   0000000000000002312201900000VTO330630291727
D000000000000340250608122022083004FG100719              09042020CUOTA         00000000000MATRICULACUOTAS0000330000P                                    R15   0000000000000002312201900000VTO330630291727
D000000000000340250608122031082005FG100836              09042020CUOTA         00000000000MATRICULACUOTAS0000210000P                                    R15   0000000000000002312201900000VTO330630291727
D000000000000340255108122869142007FG100799              09042020CUOTA         00000000000MATRICULACUOTAS0000309000P                                    R15   0000000000000002312201900000VTO330630291727
D000000000000340299508299013771007FG100622              09042020CUOTA         00000000000MATRICULACUOTAS0000210000P                                    R15   0000000000000002312201900000VTO330630291727
D000000000000340250608730001750016FG100296              09042020CUOTA         00000000000MATRICULACUOTAS0000210000P                                    R15   0000000000000002312201900000VTO330630291727
D000000000000340252008730002926007FG100698              09042020CUOTA         00000000000MATRICULACUOTAS0000210000P                                    R15   0000000000000002312201900000VTO330630291727
D000000000000340250608730004778002FG100072              09042020CUOTA         00000000000MATRICULACUOTAS0000420000P                                    R15   0000000000000002312201900000VTO330630291727
D000000000000340250608122029765000FG100784              09042020CUOTA         00000000000MATRICULACUOTAS0000180000P                                    R10   0000000000000002312201900000VTO330630291727
D000000000000340250608122030875000FG100798              09042020CUOTA         00000000000MATRICULACUOTAS0000129000P                                    R10   0000000000000002312201900000VTO330630291727
D000000000000340250600122036635008FG100096              09042020CUOTA         00000000000MATRICULACUOTAS0000660000P                                    R10   0000000000000002312201900000VTO330630291727
D000000000000340252008122350413009FG100248              09042020CUOTA         00000000000MATRICULACUOTAS0000210000P                                    R10   0000000000000002312201900000VTO330630291727
D000000000000340258208123341904009FG100463              09042020CUOTA         00000000000MATRICULACUOTAS0000180000P                                    R10   0000000000000002312201900000VTO330630291727
D000000000000340100808710148912003FG100745              09042020CUOTA         00000000000MATRICULACUOTAS0000210000P                                    R10   0000000000000002312201900000VTO330630291727
D000000000000340250608730011840015FG100379              09042020CUOTA         00000000000MATRICULACUOTAS0000450000P                                    R10   0000000000000002312201900000VTO330630291727
D000000000000340262008730023389005FG101044              09042020CUOTA         00000000000MATRICULACUOTAS0000210000P                                    R03   0000000000000002312201900000VTO330630291727
D000000000000340250608730004206004FG100002              09042020CUOTA         00000000000MATRICULACUOTAS0000210000P                                    R00   0000000000000002312201900000VTO330630291727
D000000000000340250608122020081000FG100005              09042020CUOTA         00000000000MATRICULACUOTAS0000210000P                                    R00   0000000000000002312201900000VTO330630291727
D000000000000340250608730012103010FG100009              09042020CUOTA         00000000000MATRICULACUOTAS0000210000P                                    R00   0000000000000002312201900000VTO330630291727
D000000000000110546930054615181501FG100014              09042020CUOTA         00000000000MATRICULACUOTAS0000210000P                                    R00   0000000000000002312201900000VTO330630291727
D000000000000340250608730001002001FG100017              09042020CUOTA         00000000000MATRICULACUOTAS0000210000P                                    R00   0000000000000002312201900000VTO330630291727
D000000000001910092655009259833832FG100019              09042020CUOTA         00000000000MATRICULACUOTAS0000360000P                                    R00   0000000000000002312201900000VTO330630291727
D000000000000110546930054613511429FG100027              09042020CUOTA         00000000000MATRICULACUOTAS0000220000P                                    R00   0000000000000002312201900000VTO330630291727
D000000000000340299508730003090002FG100033              09042020CUOTA         00000000000MATRICULACUOTAS0000220000P                                    R00   0000000000000002312201900000VTO330630291727
D000000000000340250608730003177015FG100034              09042020CUOTA         00000000000MATRICULACUOTAS0000330000P                                    R00   0000000000000002312201900000VTO330630291727
D000000000000340250608122023952000FG100038              09042020CUOTA         00000000000MATRICULACUOTAS0000210000P                                    R00   0000000000000002312201900000VTO330630291727
D000000000000340250608730010569014FG100039              09042020CUOTA         00000000000MATRICULACUOTAS0000210000P                                    R00   0000000000000002312201900000VTO330630291727
D000000000000340250608710193083000FG100049              09042020CUOTA         00000000000MATRICULACUOTAS0000210000P                                    R00   0000000000000002312201900000VTO330630291727
D000000000000340250608730001500000FG100051              09042020CUOTA         00000000000MATRICULACUOTAS0000210000P                                    R00   0000000000000002312201900000VTO330630291727
D000000000000340250608730150044008FG100052              09042020CUOTA         00000000000MATRICULACUOTAS0000210000P                                    R00   0000000000000002312201900000VTO330630291727
D000000000000340250608122001795005FG100062              09042020CUOTA         00000000000MATRICULACUOTAS0000210000P                                    R00   0000000000000002312201900000VTO330630291727
D000000000000340250608122022328004FG100073              09042020CUOTA         00000000000MATRICULACUOTAS0000210000P                                    R00   0000000000000002312201900000VTO330630291727
D000000000000340250608730011325006FG100074              09042020CUOTA         00000000000MATRICULACUOTAS0000210000P                                    R00   0000000000000002312201900000VTO330630291727
D000000000000110546930054611495301FG100076              09042020CUOTA         00000000000MATRICULACUOTAS0000210000P                                    R00   0000000000000002312201900000VTO330630291727
D000000000000340250608730011142005FG100081              09042020CUOTA         00000000000MATRICULACUOTAS0000330000P                                    R00   0000000000000002312201900000VTO330630291727
D000000000000340220908220007385009FG100084              09042020CUOTA         00000000000MATRICULACUOTAS0000420000P                                    R00   0000000000000002312201900000VTO330630291727
D000000000000340250608122016254001FG100092              09042020CUOTA         00000000000MATRICULACUOTAS0000210000P                                    R00   0000000000000002312201900000VTO330630291727
D000000000000340250600122047386007FG100099              09042020CUOTA         00000000000MATRICULACUOTAS0000210000P                                    R00   0000000000000002312201900000VTO330630291727
D000000000000110546930054613511665FG100115              09042020CUOTA         00000000000MATRICULACUOTAS0000180000P                                    R00   0000000000000002312201900000VTO330630291727
D000000000000340250608730010966006FG100126              09042020CUOTA         00000000000MATRICULACUOTAS0000330000P                                    R00   0000000000000002312201900000VTO330630291727
D000000000000340250608730003042010FG100128              09042020CUOTA         00000000000MATRICULACUOTAS0000330000P                                    R00   0000000000000002312201900000VTO330630291727
D000000000000340250608122015172001FG100142              09042020CUOTA         00000000000MATRICULACUOTAS0000180000P                                    R00   0000000000000002312201900000VTO330630291727
D000000000000720314388000036270404FG100144              09042020CUOTA         00000000000MATRICULACUOTAS0000180000P                                    R00   0000000000000002312201900000VTO330630291727
D000000000000340250608122011937002FG100156              09042020CUOTA         00000000000MATRICULACUOTAS0000309000P                                    R00   0000000000000002312201900000VTO330630291727
D000000000000340299508299001716005FG100158              09042020CUOTA         00000000000MATRICULACUOTAS0000309000P                                    R00   0000000000000002312201900000VTO330630291727
D000000000000720314388000036958368FG100159              09042020CUOTA         00000000000MATRICULACUOTAS0000309000P                                    R00   0000000000000002312201900000VTO330630291727
D000000000000340250608122021901004FG100161              09042020CUOTA         00000000000MATRICULACUOTAS0000417000P                                    R00   0000000000000002312201900000VTO330630291727
D000000000000340250608730004911009FG100164              09042020CUOTA         00000000000MATRICULACUOTAS0000180000P                                    R00   0000000000000002312201900000VTO330630291727
D000000000000340250608122002985007FG100165              09042020CUOTA         00000000000MATRICULACUOTAS0000154500P                                    R00   0000000000000002312201900000VTO330630291727
D000000000000720314388000036741690FG100177              09042020CUOTA         00000000000MATRICULACUOTAS0000210000P                                    R00   0000000000000002312201900000VTO330630291727
D000000000000340250608730041378009FG100185              09042020CUOTA         00000000000MATRICULACUOTAS0000210000P                                    R00   0000000000000002312201900000VTO330630291727
D000000000000340299500299002406004FG100195              09042020CUOTA         00000000000MATRICULACUOTAS0000210000P                                    R00   0000000000000002312201900000VTO330630291727
D000000000000440040040000115221570FG100197              09042020CUOTA         00000000000MATRICULACUOTAS0000330000P                                    R00   0000000000000002312201900000VTO330630291727
D000000000000340250608122003478009FG100198              09042020CUOTA         00000000000MATRICULACUOTAS0000399000P                                    R00   0000000000000002312201900000VTO330630291727
D000000000000720314388000037039204FG100202              09042020CUOTA         00000000000MATRICULACUOTAS0000339000P                                    R00   0000000000000002312201900000VTO330630291727
D000000000000340299508299008635000FG100205              09042020CUOTA         00000000000MATRICULACUOTAS0000180000P                                    R00   0000000000000002312201900000VTO330630291727
D000000000000340250608730011160032FG100210              09042020CUOTA         00000000000MATRICULACUOTAS0000309000P                                    R00   0000000000000002312201900000VTO330630291727
D000000000000340250608122010518006FG100212              09042020CUOTA         00000000000MATRICULACUOTAS0000180000P                                    R00   0000000000000002312201900000VTO330630291727
D000000000000340250600122040847008FG100214              09042020CUOTA         00000000000MATRICULACUOTAS0000309000P                                    R00   0000000000000002312201900000VTO330630291727
D000000000000340299508122039108004FG100215              09042020CUOTA         00000000000MATRICULACUOTAS0000309000P                                    R00   0000000000000002312201900000VTO330630291727
D000000000000340299508122018849005FG100220              09042020CUOTA         00000000000MATRICULACUOTAS0000309000P                                    R00   0000000000000002312201900000VTO330630291727
D000000000000340250608122027626004FG100221              09042020CUOTA         00000000000MATRICULACUOTAS0000180000P                                    R00   0000000000000002312201900000VTO330630291727
D000000000001910242755124200007521FG100222              09042020CUOTA         00000000000MATRICULACUOTAS0000339000P                                    R00   0000000000000002312201900000VTO330630291727
D000000000000340250608122016331007FG100223              09042020CUOTA         00000000000MATRICULACUOTAS0000180000P                                    R00   0000000000000002312201900000VTO330630291727
D000000000000340250608730004266000FG100225              09042020CUOTA         00000000000MATRICULACUOTAS0000309000P                                    R00   0000000000000002312201900000VTO330630291727
D000000000000110546930054612430347FG100226              09042020CUOTA         00000000000MATRICULACUOTAS0000180000P                                    R00   0000000000000002312201900000VTO330630291727
D000000000000340250608122002353006FG100230              09042020CUOTA         00000000000MATRICULACUOTAS0000180000P                                    R00   0000000000000002312201900000VTO330630291727
D000000000000340250608122027844004FG100236              09042020CUOTA         00000000000MATRICULACUOTAS0000210000P                                    R00   0000000000000002312201900000VTO330630291727
D000000000000110546930054614022779FG100237              09042020CUOTA         00000000000MATRICULACUOTAS0000387000P                                    R00   0000000000000002312201900000VTO330630291727
D000000000000340250608122003490007FG100241              09042020CUOTA         00000000000MATRICULACUOTAS0000210000P                                    R00   0000000000000002312201900000VTO330630291727
D000000000000340250608122019370005FG100244              09042020CUOTA         00000000000MATRICULACUOTAS0000210000P                                    R00   0000000000000002312201900000VTO330630291727
D000000000000720314388000035739922FG100245              09042020CUOTA         00000000000MATRICULACUOTAS0000360000P                                    R00   0000000000000002312201900000VTO330630291727
D000000000000110546930054611564197FG100251              09042020CUOTA         00000000000MATRICULACUOTAS0000210000P                                    R00   0000000000000002312201900000VTO330630291727
D000000000000340250608730001419001FG100253              09042020CUOTA         00000000000MATRICULACUOTAS0000210000P                                    R00   0000000000000002312201900000VTO330630291727
D000000000000110546930054600034265FG100256              09042020CUOTA         00000000000MATRICULACUOTAS0000210000P                                    R00   0000000000000002312201900000VTO330630291727
D000000000000340250608122030094003FG100257              09042020CUOTA         00000000000MATRICULACUOTAS0000360000P                                    R00   0000000000000002312201900000VTO330630291727
D000000000000340250608122013669008FG100259              09042020CUOTA         00000000000MATRICULACUOTAS0000360000P                                    R00   0000000000000002312201900000VTO330630291727
D000000000000340250608730006056003FG100263              09042020CUOTA         00000000000MATRICULACUOTAS0000210000P                                    R00   0000000000000002312201900000VTO330630291727
D000000000002850548040094812621218FG100266              09042020CUOTA         00000000000MATRICULACUOTAS0000210000P                                    R00   0000000000000002312201900000VTO330630291727
D000000000000340299508299013552004FG100269              09042020CUOTA         00000000000MATRICULACUOTAS0000210000P                                    R00   0000000000000002312201900000VTO330630291727
D000000000000340250608725005037001FG100270              09042020CUOTA         00000000000MATRICULACUOTAS0000210000P                                    R00   0000000000000002312201900000VTO330630291727
D000000000000340250608730011366003FG100272              09042020CUOTA         00000000000MATRICULACUOTAS0000155000P                                    R00   0000000000000002312201900000VTO330630291727
D000000000000340250608730000473000FG100283              09042020CUOTA         00000000000MATRICULACUOTAS0000210000P                                    R00   0000000000000002312201900000VTO330630291727
D000000000000340250608122009288000FG100284              09042020CUOTA         00000000000MATRICULACUOTAS0000330000P                                    R00   0000000000000002312201900000VTO330630291727
D000000000000340250608730005065002FG100288              09042020CUOTA         00000000000MATRICULACUOTAS0000309000P                                    R00   0000000000000002312201900000VTO330630291727
D000000000000340250608730002592004FG100289              09042020CUOTA         00000000000MATRICULACUOTAS0000155000P                                    R00   0000000000000002312201900000VTO330630291727
D000000000000340220908220028051008FG100298              09042020CUOTA         00000000000MATRICULACUOTAS0000210000P                                    R00   0000000000000002312201900000VTO330630291727
D000000000000340250608122001926005FG100301              09042020CUOTA         00000000000MATRICULACUOTAS0000224000P                                    R00   0000000000000002312201900000VTO330630291727
D000000000000340255108730041928006FG100302              09042020CUOTA         00000000000MATRICULACUOTAS0000360000P                                    R00   0000000000000002312201900000VTO330630291727
D000000000001910242755124200624335FG100308              09042020CUOTA         00000000000MATRICULACUOTAS0000210000P                                    R00   0000000000000002312201900000VTO330630291727
D000000000000340299508299005359006FG100313              09042020CUOTA         00000000000MATRICULACUOTAS0000180000P                                    R00   0000000000000002312201900000VTO330630291727
D000000000000340250608122005065009FG100318              09042020CUOTA         00000000000MATRICULACUOTAS0000360000P                                    R00   0000000000000002312201900000VTO330630291727
D000000000000340250608102001380003FG100320              09042020CUOTA         00000000000MATRICULACUOTAS0000417000P                                    R00   0000000000000002312201900000VTO330630291727
D000000000000340250600730000675002FG100326              09042020CUOTA         00000000000MATRICULACUOTAS0000210000P                                    R00   0000000000000002312201900000VTO330630291727
D000000000000720314388000035527754FG100333              09042020CUOTA         00000000000MATRICULACUOTAS0000210000P                                    R00   0000000000000002312201900000VTO330630291727
D000000000000340250608730008475008FG100336              09042020CUOTA         00000000000MATRICULACUOTAS0000309000P                                    R00   0000000000000002312201900000VTO330630291727
D000000000000340250608730005603002FG100340              09042020CUOTA         00000000000MATRICULACUOTAS0000210000P                                    R00   0000000000000002312201900000VTO330630291727
D000000000000340299508299019886004FG100346              09042020CUOTA         00000000000MATRICULACUOTAS0000330000P                                    R00   0000000000000002312201900000VTO330630291727
D000000000000340250608122006578003FG100348              09042020CUOTA         00000000000MATRICULACUOTAS0000210000P                                    R00   0000000000000002312201900000VTO330630291727
D000000000000340259908730053123006FG100350              09042020CUOTA         00000000000MATRICULACUOTAS0000360000P                                    R00   0000000000000002312201900000VTO330630291727
D000000000000340250608730004719009FG100363              09042020CUOTA         00000000000MATRICULACUOTAS0000210000P                                    R00   0000000000000002312201900000VTO330630291727
D000000000000140348803628102536697FG100374              09042020CUOTA         00000000000MATRICULACUOTAS0000210000P                                    R00   0000000000000002312201900000VTO330630291727
D000000000000340250608122035321003FG100382              09042020CUOTA         00000000000MATRICULACUOTAS0000330000P                                    R00   0000000000000002312201900000VTO330630291727
D000000000000720314388000035715218FG100384              09042020CUOTA         00000000000MATRICULACUOTAS0000399000P                                    R00   0000000000000002312201900000VTO330630291727
D000000000000340250608730007780006FG100388              09042020CUOTA         00000000000MATRICULACUOTAS0000210000P                                    R00   0000000000000002312201900000VTO330630291727
D000000000000340252008730021488001FG100391              09042020CUOTA         00000000000MATRICULACUOTAS0000360000P                                    R00   0000000000000002312201900000VTO330630291727
D000000000001910242755124200440553FG100395              09042020CUOTA         00000000000MATRICULACUOTAS0000360000P                                    R00   0000000000000002312201900000VTO330630291727
D000000000000340250608730003925003FG100397              09042020CUOTA         00000000000MATRICULACUOTAS0000360000P                                    R00   0000000000000002312201900000VTO330630291727
D000000000001910242755124200553499FG100403              09042020CUOTA         00000000000MATRICULACUOTAS0000210000P                                    R00   0000000000000002312201900000VTO330630291727
D000000000000340250608122008946000FG100407              09042020CUOTA         00000000000MATRICULACUOTAS0000210000P                                    R00   0000000000000002312201900000VTO330630291727
D000000000000340250608122001047007FG100411              09042020CUOTA         00000000000MATRICULACUOTAS0000330000P                                    R00   0000000000000002312201900000VTO330630291727
D000000000001910242755124200242135FG100412              09042020CUOTA         00000000000MATRICULACUOTAS0000360000P                                    R00   0000000000000002312201900000VTO330630291727
D000000000000720314388000036179022FG100415              09042020CUOTA         00000000000MATRICULACUOTAS0000180000P                                    R00   0000000000000002312201900000VTO330630291727
D000000000000340299508299014091009FG100416              09042020CUOTA         00000000000MATRICULACUOTAS0000180000P                                    R00   0000000000000002312201900000VTO330630291727
D000000000000340250608122012701013FG100417              09042020CUOTA         00000000000MATRICULACUOTAS0000210000P                                    R00   0000000000000002312201900000VTO330630291727
D000000000000070189730004005230292FG100420              09042020CUOTA         00000000000MATRICULACUOTAS0000210000P                                    R00   0000000000000002312201900000VTO330630291727
D000000000000340250608122013940000FG100421              09042020CUOTA         00000000000MATRICULACUOTAS0000210000P                                    R00   0000000000000002312201900000VTO330630291727
D000000000000340250608122001226013FG100423              09042020CUOTA         00000000000MATRICULACUOTAS0000210000P                                    R00   0000000000000002312201900000VTO330630291727
D000000000000720314388000036820418FG100427              09042020CUOTA         00000000000MATRICULACUOTAS0000540000P                                    R00   0000000000000002312201900000VTO330630291727
D000000000000110546930054600081629FG100432              09042020CUOTA         00000000000MATRICULACUOTAS0000210000P                                    R00   0000000000000002312201900000VTO330630291727
D000000000000340250608730008474005FG100434              09042020CUOTA         00000000000MATRICULACUOTAS0000360000P                                    R00   0000000000000002312201900000VTO330630291727
D000000000000340250608730001195006FG100436              09042020CUOTA         00000000000MATRICULACUOTAS0000180000P                                    R00   0000000000000002312201900000VTO330630291727
D000000000000340250608299001526002FG100438              09042020CUOTA         00000000000MATRICULACUOTAS0000180000P                                    R00   0000000000000002312201900000VTO330630291727
D000000000000110546920054600157600FG100441              09042020CUOTA         00000000000MATRICULACUOTAS0000399000P                                    R00   0000000000000002312201900000VTO330630291727
D000000000000340250608730008534008FG100442              09042020CUOTA         00000000000MATRICULACUOTAS0000399000P                                    R00   0000000000000002312201900000VTO330630291727
D000000000000720314388000036073454FG100444              09042020CUOTA         00000000000MATRICULACUOTAS0000210000P                                    R00   0000000000000002312201900000VTO330630291727
D000000000000340250608122031077009FG100449              09042020CUOTA         00000000000MATRICULACUOTAS0000180000P                                    R00   0000000000000002312201900000VTO330630291727
D000000000000340250608299002206015FG100454              09042020CUOTA         00000000000MATRICULACUOTAS0000360000P                                    R00   0000000000000002312201900000VTO330630291727
D000000000000340250608122026500008FG100455              09042020CUOTA         00000000000MATRICULACUOTAS0000360000P                                    R00   0000000000000002312201900000VTO330630291727
D000000000000340250608730007662003FG100457              09042020CUOTA         00000000000MATRICULACUOTAS0000309000P                                    R00   0000000000000002312201900000VTO330630291727
D000000000000340250608122009558008FG100460              09042020CUOTA         00000000000MATRICULACUOTAS0000210000P                                    R00   0000000000000002312201900000VTO330630291727
D000000000000720314388000035859136FG100466              09042020CUOTA         00000000000MATRICULACUOTAS0000180000P                                    R00   0000000000000002312201900000VTO330630291727
D000000000000340250608122006581027FG100467              09042020CUOTA         00000000000MATRICULACUOTAS0000309000P                                    R00   0000000000000002312201900000VTO330630291727
D000000000000340250608122023438001FG100469              09042020CUOTA         00000000000MATRICULACUOTAS0000210000P                                    R00   0000000000000002312201900000VTO330630291727
D000000000000110546930054612444951FG100470              09042020CUOTA         00000000000MATRICULACUOTAS0000210000P                                    R00   0000000000000002312201900000VTO330630291727
D000000000000340250608122032702005FG100471              09042020CUOTA         00000000000MATRICULACUOTAS0000180000P                                    R00   0000000000000002312201900000VTO330630291727
D000000000000070189730004004635319FG100472              09042020CUOTA         00000000000MATRICULACUOTAS0000339000P                                    R00   0000000000000002312201900000VTO330630291727
D000000000000340294008294400525009FG100475              09042020CUOTA         00000000000MATRICULACUOTAS0000210000P                                    R00   0000000000000002312201900000VTO330630291727
D000000000000340250608122045977001FG100476              09042020CUOTA         00000000000MATRICULACUOTAS0000210000P                                    R00   0000000000000002312201900000VTO330630291727
D000000000000340250608122006324019FG100478              09042020CUOTA         00000000000MATRICULACUOTAS0000210000P                                    R00   0000000000000002312201900000VTO330630291727
D000000000001500053400011661732250FG100488              09042020CUOTA         00000000000MATRICULACUOTAS0000210000P                                    R00   0000000000000002312201900000VTO330630291727
D000000000000340250608730001202005FG100490              09042020CUOTA         00000000000MATRICULACUOTAS0000210000P                                    R00   0000000000000002312201900000VTO330630291727
D000000000000340250608122027582001FG100491              09042020CUOTA         00000000000MATRICULACUOTAS0000210000P                                    R00   0000000000000002312201900000VTO330630291727
D000000000000340250608730007281004FG100498              09042020CUOTA         00000000000MATRICULACUOTAS0000210000P                                    R00   0000000000000002312201900000VTO330630291727
D000000000000340250608122011639007FG100511              09042020CUOTA         00000000000MATRICULACUOTAS0000210000P                                    R00   0000000000000002312201900000VTO330630291727
D000000000000340250608730004884008FG100512              09042020CUOTA         00000000000MATRICULACUOTAS0000210000P                                    R00   0000000000000002312201900000VTO330630291727
D000000000000340299508122017608005FG100517              09042020CUOTA         00000000000MATRICULACUOTAS0000210000P                                    R00   0000000000000002312201900000VTO330630291727
D000000000000340250608122035185007FG100519              09042020CUOTA         00000000000MATRICULACUOTAS0000210000P                                    R00   0000000000000002312201900000VTO330630291727
D000000000000110546930054613906001FG100521              09042020CUOTA         00000000000MATRICULACUOTAS0000210000P                                    R00   0000000000000002312201900000VTO330630291727
D000000000000340250608122040860007FG100524              09042020CUOTA         00000000000MATRICULACUOTAS0000330000P                                    R00   0000000000000002312201900000VTO330630291727
D000000000000340255108730043941012FG100528              09042020CUOTA         00000000000MATRICULACUOTAS0000210000P                                    R00   0000000000000002312201900000VTO330630291727
D000000000000340299508299011657008FG100533              09042020CUOTA         00000000000MATRICULACUOTAS0000360000P                                    R00   0000000000000002312201900000VTO330630291727
D000000000002850548040095011722348FG100534              09042020CUOTA         00000000000MATRICULACUOTAS0000210000P                                    R00   0000000000000002312201900000VTO330630291727
D000000000000340250608730008660006FG100536              09042020CUOTA         00000000000MATRICULACUOTAS0000210000P                                    R00   0000000000000002312201900000VTO330630291727
D000000000000340250608122026386000FG100537              09042020CUOTA         00000000000MATRICULACUOTAS0000309000P                                    R00   0000000000000002312201900000VTO330630291727
D000000000002850548040094578982408FG100539              09042020CUOTA         00000000000MATRICULACUOTAS0000210000P                                    R00   0000000000000002312201900000VTO330630291727
D000000000000340250608122024865002FG100540              09042020CUOTA         00000000000MATRICULACUOTAS0000210000P                                    R00   0000000000000002312201900000VTO330630291727
D000000000000340299508299012224007FG100542              09042020CUOTA         00000000000MATRICULACUOTAS0000309000P                                    R00   0000000000000002312201900000VTO330630291727
D000000000001910242755124200172667FG100543              09042020CUOTA         00000000000MATRICULACUOTAS0000180000P                                    R00   0000000000000002312201900000VTO330630291727
D000000000000340250608122017115002FG100547              09042020CUOTA         00000000000MATRICULACUOTAS0000224000P                                    R00   0000000000000002312201900000VTO330630291727
D000000000000340250608730004537001FG100549              09042020CUOTA         00000000000MATRICULACUOTAS0000210000P                                    R00   0000000000000002312201900000VTO330630291727
D000000000000720314388000036447840FG100552              09042020CUOTA         00000000000MATRICULACUOTAS0000339000P                                    R00   0000000000000002312201900000VTO330630291727
D000000000000340250608730011744003FG100555              09042020CUOTA         00000000000MATRICULACUOTAS0000210000P                                    R00   0000000000000002312201900000VTO330630291727
D000000000000340250608122012774002FG100560              09042020CUOTA         00000000000MATRICULACUOTAS0000210000P                                    R00   0000000000000002312201900000VTO330630291727
D000000000000340053108530006007005FG100564              09042020CUOTA         00000000000MATRICULACUOTAS0000180000P                                    R00   0000000000000002312201900000VTO330630291727
D000000000002850548040094729929898FG100567              09042020CUOTA         00000000000MATRICULACUOTAS0000210000P                                    R00   0000000000000002312201900000VTO330630291727
D000000000000340299508124342536006FG100569              09042020CUOTA         00000000000MATRICULACUOTAS0000330000P                                    R00   0000000000000002312201900000VTO330630291727
D000000000000340250608730003069013FG100571              09042020CUOTA         00000000000MATRICULACUOTAS0000210000P                                    R00   0000000000000002312201900000VTO330630291727
D000000000000340250608122021353010FG100572              09042020CUOTA         00000000000MATRICULACUOTAS0000210000P                                    R00   0000000000000002312201900000VTO330630291727
D000000000001910242755124200663749FG100573              09042020CUOTA         00000000000MATRICULACUOTAS0000210000P                                    R00   0000000000000002312201900000VTO330630291727
D000000000000340250608122002919019FG100576              09042020CUOTA         00000000000MATRICULACUOTAS0000224000P                                    R00   0000000000000002312201900000VTO330630291727
D000000000000340250608122020330003FG100578              09042020CUOTA         00000000000MATRICULACUOTAS0000180000P                                    R00   0000000000000002312201900000VTO330630291727
D000000000000340299508299005318009FG100583              09042020CUOTA         00000000000MATRICULACUOTAS0000210000P                                    R00   0000000000000002312201900000VTO330630291727
D000000000000340250608730006121002FG100585              09042020CUOTA         00000000000MATRICULACUOTAS0000210000P                                    R00   0000000000000002312201900000VTO330630291727
D000000000000070189730004004628034FG100586              09042020CUOTA         00000000000MATRICULACUOTAS0000840000P                                    R00   0000000000000002312201900000VTO330630291727
D000000000000340250608730012084007FG100588              09042020CUOTA         00000000000MATRICULACUOTAS0000210000P                                    R00   0000000000000002312201900000VTO330630291727
D000000000000340250608730002864008FG100590              09042020CUOTA         00000000000MATRICULACUOTAS0000150000P                                    R00   0000000000000002312201900000VTO330630291727
D000000000000340250608730002979001FG100593              09042020CUOTA         00000000000MATRICULACUOTAS0000210000P                                    R00   0000000000000002312201900000VTO330630291727
D000000000000340250608122025098007FG100594              09042020CUOTA         00000000000MATRICULACUOTAS0000210000P                                    R00   0000000000000002312201900000VTO330630291727
D000000000000340250608730004647009FG100596              09042020CUOTA         00000000000MATRICULACUOTAS0000210000P                                    R00   0000000000000002312201900000VTO330630291727
D000000000000340250608730000668015FG100597              09042020CUOTA         00000000000MATRICULACUOTAS0000210000P                                    R00   0000000000000002312201900000VTO330630291727
D000000000000340250608122001446019FG100603              09042020CUOTA         00000000000MATRICULACUOTAS0000180000P                                    R00   0000000000000002312201900000VTO330630291727
D000000000000340250608730008195009FG100604              09042020CUOTA         00000000000MATRICULACUOTAS0000180000P                                    R00   0000000000000002312201900000VTO330630291727
D000000000000340250608122017618006FG100607              09042020CUOTA         00000000000MATRICULACUOTAS0000360000P                                    R00   0000000000000002312201900000VTO330630291727
D000000000000340252008730022588007FG100608              09042020CUOTA         00000000000MATRICULACUOTAS0000210000P                                    R00   0000000000000002312201900000VTO330630291727
D000000000000340261208725004419004FG100616              09042020CUOTA         00000000000MATRICULACUOTAS0000360000P                                    R00   0000000000000002312201900000VTO330630291727
D000000000000720314388000036818718FG100617              09042020CUOTA         00000000000MATRICULACUOTAS0000210000P                                    R00   0000000000000002312201900000VTO330630291727
D000000000002850548040094707673388FG100618              09042020CUOTA         00000000000MATRICULACUOTAS0000180000P                                    R00   0000000000000002312201900000VTO330630291727
D000000000000340250608730005623004FG100621              09042020CUOTA         00000000000MATRICULACUOTAS0000420000P                                    R00   0000000000000002312201900000VTO330630291727
D000000000000340250608730011861003FG100627              09042020CUOTA         00000000000MATRICULACUOTAS0000210000P                                    R00   0000000000000002312201900000VTO330630291727
D000000000000340294008294400064005FG100628              09042020CUOTA         00000000000MATRICULACUOTAS0000210000P                                    R00   0000000000000002312201900000VTO330630291727
D000000000000340250608730011903017FG100630              09042020CUOTA         00000000000MATRICULACUOTAS0000210000P                                    R00   0000000000000002312201900000VTO330630291727
D000000000000720314388000036108954FG100632              09042020CUOTA         00000000000MATRICULACUOTAS0000387000P                                    R00   0000000000000002312201900000VTO330630291727
D000000000001910242755024250025482FG100639              09042020CUOTA         00000000000MATRICULACUOTAS0000360000P                                    R00   0000000000000002312201900000VTO330630291727
D000000000000340265008730065069002FG100640              09042020CUOTA         00000000000MATRICULACUOTAS0000210000P                                    R00   0000000000000002312201900000VTO330630291727
D000000000000340250608122000652013FG100643              09042020CUOTA         00000000000MATRICULACUOTAS0000210000P                                    R00   0000000000000002312201900000VTO330630291727
D000000000000340250608730004961004FG100644              09042020CUOTA         00000000000MATRICULACUOTAS0000450000P                                    R00   0000000000000002312201900000VTO330630291727
D000000000000340250608122028591008FG100646              09042020CUOTA         00000000000MATRICULACUOTAS0000428000P                                    R00   0000000000000002312201900000VTO330630291727
D000000000000720314388000036485268FG100648              09042020CUOTA         00000000000MATRICULACUOTAS0000210000P                                    R00   0000000000000002312201900000VTO330630291727
D000000000001910242755124200383535FG100650              09042020CUOTA         00000000000MATRICULACUOTAS0000360000P                                    R00   0000000000000002312201900000VTO330630291727
D000000000000340250608730008205007FG100652              09042020CUOTA         00000000000MATRICULACUOTAS0000360000P                                    R00   0000000000000002312201900000VTO330630291727
D000000000000110546930054611554479FG100653              09042020CUOTA         00000000000MATRICULACUOTAS0000210000P                                    R00   0000000000000002312201900000VTO330630291727
D000000000000340250608122025162003FG100654              09042020CUOTA         00000000000MATRICULACUOTAS0000210000P                                    R00   0000000000000002312201900000VTO330630291727
D000000000000340250608730008572013FG100655              09042020CUOTA         00000000000MATRICULACUOTAS0000210000P                                    R00   0000000000000002312201900000VTO330630291727
D000000000000340299508299000912015FG100657              09042020CUOTA         00000000000MATRICULACUOTAS0000210000P                                    R00   0000000000000002312201900000VTO330630291727
D000000000000340299508299007553000FG100658              09042020CUOTA         00000000000MATRICULACUOTAS0000360000P                                    R00   0000000000000002312201900000VTO330630291727
D000000000000340250608730003692000FG100659              09042020CUOTA         00000000000MATRICULACUOTAS0000210000P                                    R00   0000000000000002312201900000VTO330630291727
D000000000000340250608730007605020FG100660              09042020CUOTA         00000000000MATRICULACUOTAS0000210000P                                    R00   0000000000000002312201900000VTO330630291727
D000000000000340250608719128027003FG100661              09042020CUOTA         00000000000MATRICULACUOTAS0000210000P                                    R00   0000000000000002312201900000VTO330630291727
D000000000000340250608122025974006FG100664              09042020CUOTA         00000000000MATRICULACUOTAS0000210000P                                    R00   0000000000000002312201900000VTO330630291727
D000000000000340252008730021651001FG100665              09042020CUOTA         00000000000MATRICULACUOTAS0000210000P                                    R00   0000000000000002312201900000VTO330630291727
D000000000000340250608122030644000FG100670              09042020CUOTA         00000000000MATRICULACUOTAS0000360000P                                    R00   0000000000000002312201900000VTO330630291727
D000000000000340250608122017704000FG100676              09042020CUOTA         00000000000MATRICULACUOTAS0000210000P                                    R00   0000000000000002312201900000VTO330630291727
D000000000000340299500730006795005FG100677              09042020CUOTA         00000000000MATRICULACUOTAS0000210000P                                    R00   0000000000000002312201900000VTO330630291727
D000000000000340250600122039475005FG100683              09042020CUOTA         00000000000MATRICULACUOTAS0000210000P                                    R00   0000000000000002312201900000VTO330630291727
D000000000000170080040000037397506FG100685              09042020CUOTA         00000000000MATRICULACUOTAS0000210000P                                    R00   0000000000000002312201900000VTO330630291727
D000000000000340250608730000397007FG100687              09042020CUOTA         00000000000MATRICULACUOTAS0000210000P                                    R00   0000000000000002312201900000VTO330630291727
D000000000000340250608122034432005FG100691              09042020CUOTA         00000000000MATRICULACUOTAS0000210000P                                    R00   0000000000000002312201900000VTO330630291727
D000000000000110546930054613218115FG100696              09042020CUOTA         00000000000MATRICULACUOTAS0000210000P                                    R00   0000000000000002312201900000VTO330630291727
D000000000000340250608730012002003FG100697              09042020CUOTA         00000000000MATRICULACUOTAS0000210000P                                    R00   0000000000000002312201900000VTO330630291727
D000000000000340250608730008470027FG100699              09042020CUOTA         00000000000MATRICULACUOTAS0000155000P                                    R00   0000000000000002312201900000VTO330630291727
D000000000000340250600730007961003FG100700              09042020CUOTA         00000000000MATRICULACUOTAS0000360000P                                    R00   0000000000000002312201900000VTO330630291727
D000000000000340250608122006340002FG100701              09042020CUOTA         00000000000MATRICULACUOTAS0000210000P                                    R00   0000000000000002312201900000VTO330630291727
D000000000000340250608730008069001FG100702              09042020CUOTA         00000000000MATRICULACUOTAS0000180000P                                    R00   0000000000000002312201900000VTO330630291727
D000000000000110546930054615325129FG100703              09042020CUOTA         00000000000MATRICULACUOTAS0000180000P                                    R00   0000000000000002312201900000VTO330630291727
D000000000000340250608122023727008FG100705              09042020CUOTA         00000000000MATRICULACUOTAS0000330000P                                    R00   0000000000000002312201900000VTO330630291727
D000000000000720314388000036299472FG100706              09042020CUOTA         00000000000MATRICULACUOTAS0000339000P                                    R00   0000000000000002312201900000VTO330630291727
D000000000000340250608122013686001FG100707              09042020CUOTA         00000000000MATRICULACUOTAS0000339000P                                    R00   0000000000000002312201900000VTO330630291727
D000000000000340250608710391739006FG100708              09042020CUOTA         00000000000MATRICULACUOTAS0000309000P                                    R00   0000000000000002312201900000VTO330630291727
D000000000000340250608122021228008FG100710              09042020CUOTA         00000000000MATRICULACUOTAS0000180000P                                    R00   0000000000000002312201900000VTO330630291727
D000000000000340250608122012511003FG100711              09042020CUOTA         00000000000MATRICULACUOTAS0000309000P                                    R00   0000000000000002312201900000VTO330630291727
D000000000000720314388000032891122FG100713              09042020CUOTA         00000000000MATRICULACUOTAS0000180000P                                    R00   0000000000000002312201900000VTO330630291727
D000000000000720314388000036658404FG100714              09042020CUOTA         00000000000MATRICULACUOTAS0000477000P                                    R00   0000000000000002312201900000VTO330630291727
D000000000000720314388000036756986FG100715              09042020CUOTA         00000000000MATRICULACUOTAS0000309000P                                    R00   0000000000000002312201900000VTO330630291727
D000000000000340250608122037372009FG100717              09042020CUOTA         00000000000MATRICULACUOTAS0000309000P                                    R00   0000000000000002312201900000VTO330630291727
D000000000000340250608730011332008FG100721              09042020CUOTA         00000000000MATRICULACUOTAS0000429000P                                    R00   0000000000000002312201900000VTO330630291727
D000000000000340250608122013177015FG100722              09042020CUOTA         00000000000MATRICULACUOTAS0000330000P                                    R00   0000000000000002312201900000VTO330630291727
D000000000000340100808725008632005FG100723              09042020CUOTA         00000000000MATRICULACUOTAS0000154500P                                    R00   0000000000000002312201900000VTO330630291727
D000000000002850548040002200441849FG100724              09042020CUOTA         00000000000MATRICULACUOTAS0000309000P                                    R00   0000000000000002312201900000VTO330630291727
D000000000000340299508299003908002FG100727              09042020CUOTA         00000000000MATRICULACUOTAS0000420000P                                    R00   0000000000000002312201900000VTO330630291727
D000000000000340250608122007322005FG100728              09042020CUOTA         00000000000MATRICULACUOTAS0000429000P                                    R00   0000000000000002312201900000VTO330630291727
D000000000000340250608730006927006FG100730              09042020CUOTA         00000000000MATRICULACUOTAS0000210000P                                    R00   0000000000000002312201900000VTO330630291727
D000000000000340250608730006900003FG100731              09042020CUOTA         00000000000MATRICULACUOTAS0000180000P                                    R00   0000000000000002312201900000VTO330630291727
D000000000000340250608122028183005FG100732              09042020CUOTA         00000000000MATRICULACUOTAS0000110000P                                    R00   0000000000000002312201900000VTO330630291727
D000000000000110546930054600103433FG100738              09042020CUOTA         00000000000MATRICULACUOTAS0000210000P                                    R00   0000000000000002312201900000VTO330630291727
D000000000000110546930054614109515FG100739              09042020CUOTA         00000000000MATRICULACUOTAS0000360000P                                    R00   0000000000000002312201900000VTO330630291727
D000000000000340250608730005293003FG100743              09042020CUOTA         00000000000MATRICULACUOTAS0000210000P                                    R00   0000000000000002312201900000VTO330630291727
D000000000000340250608730010961001FG100749              09042020CUOTA         00000000000MATRICULACUOTAS0000210000P                                    R00   0000000000000002312201900000VTO330630291727
D000000000000110546930054613698951FG100750              09042020CUOTA         00000000000MATRICULACUOTAS0000210000P                                    R00   0000000000000002312201900000VTO330630291727
D000000000000340252008730023613001FG100753              09042020CUOTA         00000000000MATRICULACUOTAS0000210000P                                    R00   0000000000000002312201900000VTO330630291727
D000000000000340252008730022988005FG100754              09042020CUOTA         00000000000MATRICULACUOTAS0000210000P                                    R00   0000000000000002312201900000VTO330630291727
D000000000000340250608122009799009FG100755              09042020CUOTA         00000000000MATRICULACUOTAS0000210000P                                    R00   0000000000000002312201900000VTO330630291727
D000000000000340252008730022783006FG100756              09042020CUOTA         00000000000MATRICULACUOTAS0000360000P                                    R00   0000000000000002312201900000VTO330630291727
D000000000000340250608730010622009FG100757              09042020CUOTA         00000000000MATRICULACUOTAS0000210000P                                    R00   0000000000000002312201900000VTO330630291727
D000000000000340250608122028237009FG100761              09042020CUOTA         00000000000MATRICULACUOTAS0000210000P                                    R00   0000000000000002312201900000VTO330630291727
D000000000000110546930054615685201FG100762              09042020CUOTA         00000000000MATRICULACUOTAS0000210000P                                    R00   0000000000000002312201900000VTO330630291727
D000000000000340250608730008051006FG100764              09042020CUOTA         00000000000MATRICULACUOTAS0000210000P                                    R00   0000000000000002312201900000VTO330630291727
D000000000000110546930054600082233FG100765              09042020CUOTA         00000000000MATRICULACUOTAS0000210000P                                    R00   0000000000000002312201900000VTO330630291727
D000000000000340250608725006455004FG100767              09042020CUOTA         00000000000MATRICULACUOTAS0000210000P                                    R00   0000000000000002312201900000VTO330630291727
D000000000000140348803628102640598FG100768              09042020CUOTA         00000000000MATRICULACUOTAS0000210000P                                    R00   0000000000000002312201900000VTO330630291727
D000000000000340250608730001935006FG100769              09042020CUOTA         00000000000MATRICULACUOTAS0000210000P                                    R00   0000000000000002312201900000VTO330630291727
D000000000000340250608122019964008FG100770              09042020CUOTA         00000000000MATRICULACUOTAS0000210000P                                    R00   0000000000000002312201900000VTO330630291727
D000000000000340250608122014678005FG100771              09042020CUOTA         00000000000MATRICULACUOTAS0000210000P                                    R00   0000000000000002312201900000VTO330630291727
D000000000000070005430004099499544FG100775              09042020CUOTA         00000000000MATRICULACUOTAS0000180000P                                    R00   0000000000000002312201900000VTO330630291727
D000000000000110546930054612404315FG100777              09042020CUOTA         00000000000MATRICULACUOTAS0000330000P                                    R00   0000000000000002312201900000VTO330630291727
D000000000000340250608100035340024FG100778              09042020CUOTA         00000000000MATRICULACUOTAS0000180000P                                    R00   0000000000000002312201900000VTO330630291727
D000000000000340299508299013496003FG100779              09042020CUOTA         00000000000MATRICULACUOTAS0000180000P                                    R00   0000000000000002312201900000VTO330630291727
D000000000000340250608122015358018FG100780              09042020CUOTA         00000000000MATRICULACUOTAS0000180000P                                    R00   0000000000000002312201900000VTO330630291727
D000000000000340299508299004579003FG100781              09042020CUOTA         00000000000MATRICULACUOTAS0000180000P                                    R00   0000000000000002312201900000VTO330630291727
D000000000000720314320000000217086FG100787              09042020CUOTA         00000000000MATRICULACUOTAS0000180000P                                    R00   0000000000000002312201900000VTO330630291727
D000000000000340250608122012050016FG100790              09042020CUOTA         00000000000MATRICULACUOTAS0000330000P                                    R00   0000000000000002312201900000VTO330630291727
D000000000000720314388000036210286FG100792              09042020CUOTA         00000000000MATRICULACUOTAS0000210000P                                    R00   0000000000000002312201900000VTO330630291727
D000000000002850548040094851361078FG100793              09042020CUOTA         00000000000MATRICULACUOTAS0000360000P                                    R00   0000000000000002312201900000VTO330630291727
D000000000000110546930054611306483FG100794              09042020CUOTA         00000000000MATRICULACUOTAS0000180000P                                    R00   0000000000000002312201900000VTO330630291727
D000000000000340261208730055725002FG100795              09042020CUOTA         00000000000MATRICULACUOTAS0000210000P                                    R00   0000000000000002312201900000VTO330630291727
D000000000000340250608730010866009FG100796              09042020CUOTA         00000000000MATRICULACUOTAS0000200000P                                    R00   0000000000000002312201900000VTO330630291727
D000000000000340250608730005699009FG100797              09042020CUOTA         00000000000MATRICULACUOTAS0000210000P                                    R00   0000000000000002312201900000VTO330630291727
D000000000001910242755024200768700FG100800              09042020CUOTA         00000000000MATRICULACUOTAS0000210000P                                    R00   0000000000000002312201900000VTO330630291727
D000000000000340250608122040141009FG100802              09042020CUOTA         00000000000MATRICULACUOTAS0000180000P                                    R00   0000000000000002312201900000VTO330630291727
D000000000000340264308730062883005FG100803              09042020CUOTA         00000000000MATRICULACUOTAS0000210000P                                    R00   0000000000000002312201900000VTO330630291727
D000000000000340250608730007928015FG100804              09042020CUOTA         00000000000MATRICULACUOTAS0000180000P                                    R00   0000000000000002312201900000VTO330630291727
D000000000000340250608710267482003FG100805              09042020CUOTA         00000000000MATRICULACUOTAS0000360000P                                    R00   0000000000000002312201900000VTO330630291727
D000000000000110393720039300162600FG100812              09042020CUOTA         00000000000MATRICULACUOTAS0000330000P                                    R00   0000000000000002312201900000VTO330630291727
D000000000000340250608725007037009FG100813              09042020CUOTA         00000000000MATRICULACUOTAS0000210000P                                    R00   0000000000000002312201900000VTO330630291727
D000000000000340250608730007930005FG100816              09042020CUOTA         00000000000MATRICULACUOTAS0000210000P                                    R00   0000000000000002312201900000VTO330630291727
D000000000000340299508299002720007FG100819              09042020CUOTA         00000000000MATRICULACUOTAS0000180000P                                    R00   0000000000000002312201900000VTO330630291727
D000000000000110546930054612952951FG100821              09042020CUOTA         00000000000MATRICULACUOTAS0000330000P                                    R00   0000000000000002312201900000VTO330630291727
D000000000000340299508730007699007FG100822              09042020CUOTA         00000000000MATRICULACUOTAS0000210000P                                    R00   0000000000000002312201900000VTO330630291727
D000000000000340250608122028178016FG100824              09042020CUOTA         00000000000MATRICULACUOTAS0000210000P                                    R00   0000000000000002312201900000VTO330630291727
D000000000000340250608122033674000FG100826              09042020CUOTA         00000000000MATRICULACUOTAS0000309000P                                    R00   0000000000000002312201900000VTO330630291727
D000000000000340250608730150011006FG100828              09042020CUOTA         00000000000MATRICULACUOTAS0000399000P                                    R00   0000000000000002312201900000VTO330630291727
D000000000000720313688000036698118FG100830              09042020CUOTA         00000000000MATRICULACUOTAS0000360000P                                    R00   0000000000000002312201900000VTO330630291727
D000000000000340250608730012014000FG100833              09042020CUOTA         00000000000MATRICULACUOTAS0000210000P                                    R00   0000000000000002312201900000VTO330630291727
D000000000000340250608730005875009FG100835              09042020CUOTA         00000000000MATRICULACUOTAS0000330000P                                    R00   0000000000000002312201900000VTO330630291727
D000000000000340250608122033397000FG100837              09042020CUOTA         00000000000MATRICULACUOTAS0000210000P                                    R00   0000000000000002312201900000VTO330630291727
D000000000000340250608730003071003FG100838              09042020CUOTA         00000000000MATRICULACUOTAS0000130000P                                    R00   0000000000000002312201900000VTO330630291727
T0000436000000106165900
\00
